:100000000C94E1010C9409020C9409020C9409026D
:100010000C9409020C9409020C9409020C94090234
:100020000C9409020C9409020C9409020C94B10C72
:100030000C9409020C9409020C9409020C94090214
:100040000C94670C0C9409020C9409020C9409029C
:100050000C9409020C9409020C9409020C940902F4
:100060000C9409020C9409020101FF030101F7033A
:100070006C00680000000000240027002A00000037
:100080000000250028002B000500893008023802F6
:100090004978681400000500380168010000175312
:1000A00044001613780016131400151020001520B4
:1000B0001000540A03E181867F3E186D830F0F0EF6
:1000C0000183866033186DC3198F1803C38E6033A4
:1000D000186DE330CF1803C39E603630CDE360CF98
:1000E0003006C79E7E3E30CDB360CF300CC6F66082
:1000F0003330D9B660CF33CFCCF66061B0DB1E6051
:10010000CF30D86CE6C061B0DB1E618F19986CC629
:10011000C063B19B0E330F0FB078C6FF7E1F1B0666
:100120001E0F4275696E6F20436C696D62657200C7
:100130004275696E6F20436C696D626572000A0AD0
:10014000153A49676E6F7265006D560A0A504C4544
:10015000415345205455524E204F464620004C4FA7
:1001600057204241545445525921200003053F2154
:100170003F1208120A100A0E1C0E0C1E0C141A1440
:10018000161F161E131E1E1B1E1E1F1E3F213F3A4A
:100190002F3A173D173F213F181F02040A041F0E74
:1001A00004040E1F0A1F0A0E0E1F04110E2E252E08
:1001B0002F2A2E262929021F02081F08150E0404C3
:1001C0000E150E15151B151B040604040C04000067
:1001D000000017000300031F0A1F16371A19041323
:1001E0000A153A000300000E11110E000A040A0459
:1001F0000E040030000404040010001804031F1152
:100200001F121F101D151711151F07041F17151D8D
:100210001F151D01011F1F151F17151F000A0000C4
:100220003200040A110A0A0A110A040115020E1109
:10023000171E051E1F150A0E110A1F110E1F15117C
:100240001F05010E111D1F041F111F1108100F1F84
:10025000041B1F10101F061F1E040F0E110E1F0976
:10026000060E112E1F051A121509011F011F101F5E
:100270000F180F1F0C1F1B041B031C031915130061
:100280001F11030418111F00020102202020000189
:10029000020C121E1F120C0C12120C121F0C1A143C
:1002A000041E05242A1E1F021C141D1020201D1FC1
:1002B0000814111F101E041E1E021C0C120C3E0AF4
:1002C000040C123E1E040214160A020F120E101E17
:1002D0000E100E1E081E120C1226281E322A26048C
:1002E0001E21001F00211E040102013F213FF6E8EC
:1002F000DBCFC3B8AEA49B928A827B746E68625CCB
:1003000057524E4945413E3A3734312E2C29272544
:100310002321450068010000172B152010204C4FA9
:100320004144455200172B16201314000A4E6F202B
:1003300053442063617264206F720A6E6F204C4FC9
:10034000414445522E4845580A0A153A4578697481
:10035000001D20466C617368696E670A20206C6F0F
:10036000616465722E2E2E0A0A444F4E2754205483
:1003700055524E204F464621000000000023002623
:10038000002900040404040404040402020202021A
:100390000203030303030301020408102040800149
:1003A00002040810200102040810200000000800C8
:1003B000020100000304070000000000000000002C
:1003C0000F1111241FBECFEFD8E0DEBFCDBF11E06B
:1003D000A0E0B1E0E6EDF5E202C005900D92A83193
:1003E000B107D9F723E0A8E1B1E001C01D92AF3A0F
:1003F000B207E1F711E0C1EED1E004C02197FE01A0
:100400000E94E312C03ED107C9F70E94F20C0C947F
:10041000E9120C940000E8E2F3E014AE12AE109280
:1004200071031092700315AE1092270110922601ED
:10043000109225011092B4000895CF93DF93E091BC
:1004400056038E2F90E0880F991FE0915403F0918E
:100450005503E80FF91F859194918F3F980729F470
:1004600010924D03DF91CF910895909359039927EE
:10047000880F991FE0915703F0915803E80FF91F77
:10048000C591D4910E940B02D0935B03C0935A0391
:100490001092600310925F0381E080934E0389E025
:1004A00080936303109266031092680310926A03AC
:1004B000809156038F5F80935603D4CF90E0880FCE
:1004C000991FE0915C03F0915D03E80FF91F2591FE
:1004D000349130936D0320936C03F90185919491CD
:1004E00090915103989F802D112480936E03F90100
:1004F00065917491472F50E08417150629F020F07C
:10050000F90125913491832F989F802D1124809398
:100510006F030895EF92FF920F931F93CF93DF9392
:100520008C017B01D0E0C0E0F701EC0FFD1F64916E
:10053000662361F0D801ED91FC910190F081E02DEE
:10054000C8010995892B11F02196EECFCE01DF91DC
:10055000CF911F910F91FF90EF900895AF92BF92AE
:10056000CF92DF92EF92FF920F931F93CF93DF937F
:100570006C017B018B01040F151FEB015E01AE18AE
:10058000BF08C017D10759F06991D601ED91FC91D0
:100590000190F081E02DC6010995892B79F7C501FD
:1005A000DF91CF911F910F91FF90EF90DF90CF904F
:1005B000BF90AF900895833081F028F4813099F096
:1005C0008230A9F008958730A9F08830C9F08430CE
:1005D000B1F4809180008F7D03C0809180008F777F
:1005E00080938000089584B58F7784BD089584B585
:1005F0008F7DFBCF8091B0008F778093B0000895FE
:100600008091B0008F7DF9CF1F93CF93DF93282F78
:1006100030E0F901E555FC4F8491F901E956FC4FB2
:10062000D491F901ED57FC4FC491CC23A9F0162FBA
:1006300081110E94DB02EC2FF0E0EE0FFF1FE25869
:10064000FF4FA591B4918FB7F894EC91111108C0A8
:10065000D095DE23DC938FBFDF91CF911F9108955A
:10066000DE2BF8CFCF93C82FF89460E080918503FC
:100670000E9404038091860318161CF460E00E9417
:100680000403CEBD00000DB407FEFDCF8EB58091F2
:10069000860318161CF461E00E9404037894CF913D
:1006A00008950F931F93CF93809182038F5F809360
:1006B000820308E211E0C0E08C2F80640E943203C4
:1006C00080E80E94320361E0809185030E94040368
:1006D0008091860318161CF460E00E940403F80160
:1006E00084E591919EBD00000DB407FEFDCF9EB53F
:1006F0008150B9F78091860318161CF461E00E94BE
:100700000403CF5F0C5A1F4FC630B1F680E4CF917F
:100710001F910F910C943203CF93DF9390E0FC0173
:10072000E956FC4F24918D579C4FFC0184918823FE
:10073000C9F090E0880F991FFC01EC58FF4FA5917C
:10074000B491FC01E258FF4FC591D49161110DC0E5
:100750009FB7F8948C91209582238C9388812823CD
:1007600028839FBFDF91CF910895623051F49FB7E6
:10077000F8943C91822F809583238C93E8812E2BD3
:10078000EFCF8FB7F894EC912E2B2C938FBFEACF3D
:10079000FF920F931F93CF93DF93C8E2D3E0FF2420
:1007A000FA9462E08A850E948C032A8530E0F90180
:1007B000E555FC4F8491F901E956FC4F0491F9018C
:1007C000ED57FC4F14911123E1F081110E94DB02DF
:1007D000E12FF0E0EE0FFF1FE758FC4FA591B49119
:1007E000EC9189890E2369F0811113C0219683E071
:1007F000CF32D807B1F6DF91CF911F910F91FF90C3
:10080000089589898F5F898B60E08A850E948C03B7
:10081000EDCF8F3F11F4198AF7CFF98AF5CF1F93E7
:10082000CF93DF93182FEB0161E00E948C03209798
:1008300039F460E0812FDF91CF911F910C94040374
:10084000CF3FD10511F461E0F5CFE12FF0E0E555A0
:10085000FC4FE491E33031F140F4E130B1F0E230AB
:10086000E1F0C038D1057CF7E4CFE73029F1E8307A
:1008700059F1E430B1F7809180008062809380006C
:10088000D0938B00C0938A0004C084B5806884BD77
:10089000C7BDDF91CF911F91089584B5806284BD5B
:1008A000C8BDF7CF80918000806880938000D0938E
:1008B0008900C0938800EDCF8091B000806880935C
:1008C000B000C093B300E5CF8091B0008062809308
:1008D000B000C093B400DDCF8E50806480937C0064
:1008E00080917A00806480937A0080917A0086FDFE
:1008F000FCCF8091780090917900089580914C030D
:100900008F7149F584E10E946C04BC01990F880B3A
:10091000990B0E94A61126EE3FE34EEC50E40E9494
:100920000A120E9475119B01709343036093420366
:10093000672BB9F084E080934103E4E4F3E080E0C6
:10094000419151912417350718F48093410308957C
:100950008F5F8430A9F780914C038F5F80934C03A5
:1009600008958FEF80934103F6CF3FB7F8948091BD
:100970001A0190911B01A0911C01B0911D0126B597
:10098000A89B05C02F3F19F00196A11DB11D3FBFC7
:10099000BA2FA92F982F8827BC01CD01620F711D96
:1009A000811D911D42E0660F771F881F991F4A9590
:1009B000D1F708958F929F92AF92BF92CF92DF921C
:1009C000EF92FF924B015C010E94B5046B017C0128
:1009D0000E94B5046C197D098E099F09683E734019
:1009E00081059105A8F321E0821A9108A108B108B8
:1009F00088EEC80E83E0D81EE11CF11C811491041E
:100A0000A104B10429F7FF90EF90DF90CF90BF9041
:100A1000AF909F908F900895DC01643570F540335E
:100A200060F590968C919097E62F062E000CFF0BA8
:100A3000242F25952595259594E52902E00DF11D96
:100A40001124E85DFE4F2081342F37708230B1F4DD
:100A5000822F90E0032E02C0959587950A94E2F7C5
:100A600080958170811114C081E090E001C0880FF1
:100A70003A95EAF78095822380830895833091F731
:100A80001C968C9181706427609561708613ECCF01
:100A900081E090E001C0880F3A95EAF7822BECCF15
:100AA000AF92BF92CF92DF92EF92FF920F931F937C
:100AB000CF93DF93182F062FC0E0D3E08AEFD82E14
:100AC0009EEFE92E842F8470C82E842F8270B82E5A
:100AD000842F8870A82E4170F42ECF5F8C2F880F42
:100AE0008F5FE80ECC2081F0402F4D0F612F6C0FEF
:100AF00086E793E00E940C05402F4C0F6D2F610F8D
:100B000086E793E00E940C05BB2081F0402F4D1B2F
:100B1000612F6C0F86E793E00E940C05402F4C1B61
:100B20006D2F610F86E793E00E940C05AA2081F0EB
:100B3000402F4C0F612F6D1B86E793E00E940C0540
:100B4000402F4D0F612F6C1B86E793E00E940C0530
:100B5000FF2081F0402F4C1B612F6D1B86E793E037
:100B60000E940C05402F4D1B612F6C1B86E793E004
:100B70000E940C05CD173CF4E7FCAFCFD150D394C5
:100B8000D394ED0CAACFDF91CF911F910F91FF90DD
:100B9000EF90DF90CF90BF90AF9008950F931F9389
:100BA000CF93DF93D82F162F042FC0E0C0174CF43B
:100BB000412F4C0F6D2F86E793E00E940C05CF5F0D
:100BC000F5CFDF91CF911F910F9108958F929F9252
:100BD000AF92BF92CF92DF92EF92FF920F931F934B
:100BE000CF93DF93082FA62E842E922E83E0F82E2B
:100BF000D0E0C3E09AEFE92E1EEFBB24B394B20E0F
:100C0000DF5F1F0D4C2F440F6A2D6C1BC92CCF0CBE
:100C1000DA2CDD1A81E04B0D881215C0802F8D0F64
:100C20000E94CE054C2D6D2D8C2F800F0E94CE057D
:100C3000DC1794F417FD04C0C150E394E3941E0D37
:100C4000F394F394DDCF802F8D1B0E94CE054C2DA5
:100C50006D2D802F8C1BEACFDF91CF911F910F91CB
:100C6000FF90EF90DF90CF90BF90AF909F908F90CC
:100C70000895CF92DF92EF92FF920F931F93CF933D
:100C8000DF937C01D62EC22EC42F002E000C110B38
:100C9000040F111D47FD1A958C2F0C2E000C990B7B
:100CA000801791076CF4D0E0DC1544F46D2D6D0FC6
:100CB0004C2FC7010E940C05DF5FF6CFCF5FECCF52
:100CC000DF91CF911F910F91FF90EF90DF90CF9028
:100CD00008954F925F926F927F928F929F92AF9200
:100CE000BF92CF92DF92EF92FF920F931F93CF9319
:100CF000DF93EC016A3049F428859D818A85299F1C
:100D0000800D11248A871986A6C06D3009F4A3C00E
:100D1000898483E588150CF487C0DA848FE28D1509
:100D20000CF482C018852C812150330B129FC00116
:100D3000139F900D1124880D911D87FC9A9518160C
:100D400019060CF071C02D818D2D0D2C000C990B06
:100D5000129F800D911D1124181619060CF064C005
:100D600078A0C82C912CE62EF12C292D092C000CF2
:100D7000330B8C8190E0281739070CF054C0019791
:100D8000E0E02817390771F0E89EF001E99EF00DC8
:100D9000F89EF00D11242E0F3F1FEE8DFF8DE20FF8
:100DA000F31FE4915D2C612C492C480C2D81862D7C
:100DB000062C000C990B2817190691F18CF1AE2E18
:100DC000B12CE0FF16C0113061F4462D4D0D642D9D
:100DD000CE010E940C05F501F595E7956394510E3F
:100DE000E5CF012F212F452D6C2DCE010E94390614
:100DF000F2CF89A198A1891771F388A3113041F42A
:100E0000462D4D0D642DCE010E940C0578A2E3CF36
:100E1000012F212F452D6C2DCE010E943906F6CFD2
:100E20009394C10EA2CF78A228853C818985239F07
:100E3000800D112489879F81992369F0082E000C69
:100E4000990B44E550E0239F40195109112448179C
:100E500059070CF452CF81E090E0DF91CF911F91C0
:100E60000F91FF90EF90DF90CF90BF90AF909F9049
:100E70008F907F906F905F904F900895682F86E7D6
:100E800093E00C946906089590E080E00895FB01DA
:100E900001900020E9F73197AF01461B570BDC01A9
:100EA000ED91FC910280F381E02D09948F929F9245
:100EB000AF92BF920F931F93CF93DF93CDB7DEB75F
:100EC000A1970FB6F894DEBF0FBECDBF19A2423076
:100ED00008F44AE08E010F5D1F4F842E912CB12C37
:100EE000A12CA50194010E944411E62FB901CA0169
:100EF000EA3004F5E05DD801EE938D01232B242B1D
:100F0000252B79F790E080E0109729F0BD0186E766
:100F100093E00E944707A1960FB6F894DEBF0FBE7C
:100F2000CDBFDF91CF911F910F91BF90AF909F9058
:100F30008F900895E95CDFCF0F931F93CF93DF93DA
:100F4000EC010E948A028C016DE071E0CE010E94EA
:100F50004707800F911FDF91CF911F910F91089547
:100F6000E8E2F1E088EF91E0DF019C011D92215061
:100F70003040E1F710927F031092800361E573E047
:100F800086E793E00E948A020E9451038CB5836039
:100F90008CBD8DB58E7F8DBD80E191E0EEEFFFE3DE
:100FA000099510927C036CE273E086E793E00E945F
:100FB0009C070E9451030E94C80380913D03813029
:100FC00039F062E370E080E090E00E94DA04F3CF51
:100FD00008954F925F926F927F928F929F92AF92FD
:100FE000BF92CF92DF92EF92FF920F931F93CF9316
:100FF000DF9300D000D01F92CDB7DEB74091A80399
:101000005091A9036091AA037091AB032FB7F89494
:101010008091210190912201A0912301B09124019E
:101020002FBF481B590B6A0B7B0B8091A70390E0E5
:10103000B0E0A0E00091A3031091A4032091A503C8
:101040003091A60384179507A607B70708F0CEC00E
:10105000011511052105310509F4C8C02FB7F89411
:101060008091210190912201A0912301B09124014E
:101070002FBF2091A703820F911DA11DB11D809349
:10108000A8039093A903A093AA03B093AB03809104
:10109000990390919A03A0919B03B0919C030196B0
:1010A000A11DB11D8093990390939A03A0939B0374
:1010B000B0939C031092A3031092A4031092A50373
:1010C0001092A6030E94B50460939F037093A0033F
:1010D0008093A1039093A2038091290390912A0306
:1010E0002FE0289FA001299F500D11245A83498386
:1010F00085E10E946C04A981BA818A0F9B1FB4E02C
:1011000096958795BA95E1F790932A0380932903E2
:1011100020912803222309F448C060912C03262F34
:1011200030E050E040E029833A834B835C83C090F9
:101130002D03D12CF12CE12C40913003509131033F
:101140004A01B12CA12C20912E0330912F032901AB
:10115000712C612C8217930728F09C0148175907BE
:1011600008F49A0150E040E024193509460957096E
:1011700069817A818B819C816C197D098E099F0917
:101180000E949F12A50194012419350946095709A7
:101190000E941A11C20ED31EE41EF51EC0922B032C
:1011A0006C2D70E085E00E940F040E94C8038091BE
:1011B000440390914503892B11F00E947E0481E045
:1011C0000F900F900F900F900F90DF91CF911F9184
:1011D0000F91FF90EF90DF90CF90BF90AF909F90D6
:1011E0008F907F906F905F904F900895012B022B0E
:1011F000032B09F087C180913F0381508E3FB8F5E2
:1012000080913E03813099F5809152038F5F609108
:10121000530387FD09C0082E000C990B70E06F5F27
:101220007F4F0E94BB12682F6093520385E293E0C8
:101230009093AD038093AC0388E48093AE030E9447
:101240000B0282E193E090935B0380935A03109228
:10125000600310925F0381E080934E0389E08093E6
:101260006303109266031092680310926A038091E0
:101270003F0381508E3F70F480913D03813009F02F
:1012800020C388E193E09093AD038093AC0388E49E
:101290008093AE0380914D03882331F080914E03FB
:1012A000811102C00E941D0280914E03882309F41F
:1012B0003EC08091620381113AC080915A0390919F
:1012C0005B03E0915F03F0916003EE0FFF1FE80FF7
:1012D000F91F259134912115310509F46AC1A9013D
:1012E0005695479556954795842F20FD0DC18F73D0
:1012F0008093610380915103839F802D11248093FB
:10130000620310927203109271031092700381E0D5
:1013100080936403809325011092650380915F039D
:101320009091600301969093600380935F03809196
:101330006403882331F080916203811154C10E94BB
:101340000B028091AE03882309F492C08C3008F020
:1013500031C23CE0381B3983FF24F394F0927E03C2
:10136000109296031092970340917B034D8319814D
:10137000141B042F0D5F4DE2410F2EE463E086E75E
:1013800093E00E9439065D8154505D83105D252FE6
:1013900041E0612F80E50E94E6052D8142E0612F4A
:1013A00083E00E94E605F0929603F0929703009185
:1013B0007B0383E0800F8D831981101B9DE2E92E52
:1013C000E10E23E0F22E4E2D6F2D86E793E00E9472
:1013D0000C05F39491E5F912F6CFAD81AE0DAD8316
:1013E000EA2EEA9483E0F82E4E2D6F2D86E793E0E7
:1013F0000E940C05F394B1E5FB12F6CF0350105D8B
:10140000402F612F80E00E94CE05402F612F83E5A1
:101410000E94CE0541E0612F83E00E94500542E02A
:10142000612F80E50E9450052D8124502D8344E0DA
:10143000622F80E50E94500548E06D8183E00E94A4
:10144000500584E080937F0380917B033981381BB2
:10145000315D309380036091AC037091AD0386E7FA
:1014600093E00E948A028091AE0381508093AE0384
:101470008091440390914503892BE1F041E0409332
:1014800096031092970390917A0385E5891B8093C8
:101490007F031092800380914103813009F4F6C1EB
:1014A00008F48AC190914003853008F005C28B5F33
:1014B0009111FDC10E94510380917C0381110EC0E6
:1014C000E8E2F1E088EF91E0DF019C011D922150FC
:1014D0003040E1F710927F03109280030E94B50420
:1014E0006093A3037093A4038093A5039093A60332
:1014F00020919F033091A003621B730B70939E0396
:1015000060939D0380E05CCEC901E6E096958795E7
:10151000EA95E1F78F71932F969596959695905150
:101520004F70423099F1D0F4442309F43CC041306B
:10153000B9F1E0915F03F09160033196F09360039D
:10154000E0935F03CF01880F991FE0915A03F09158
:101550005B03E80FF91F25913491C1CE433061F050
:10156000443039F720915103289F802D1124809316
:101570006A0390936B03DDCF20915103289F802D48
:1015800011248093680390936903D3CF2091510372
:10159000289F802D11248093660390936703C9CF01
:1015A0000E945E02C6CF8B3008F08AE0809363030E
:1015B000C0CF20915E03211110C010924E03809184
:1015C0004D03811103C00E940B02B1CE0E941D0287
:1015D00080915F0390916003B6CF109260031092E8
:1015E0005F03FC01B8CF8150809362038091720346
:1015F000811142C020917003309171032F5F3F4FE2
:10160000C901880F991FE0916C03F0916D03E80FF9
:10161000F91F85919491482F477040937303492F88
:101620004695469540937403AC0164E05695479502
:101630006A95E1F74F7390915103499F402D112412
:101640004093720383FB882780F9809320013093B5
:1016500071032093700380916E0390E0281739077F
:1016600058F020916F03222309F49EC0821B910938
:1016700090937103809370038091720381508093E3
:1016800072038091650331E0380F30936503409118
:10169000610320917403240F80915903280F209334
:1016A0004F0360916803662371F070E0832F032E6F
:1016B000000C990B0E94BB1280916903869F200D3C
:1016C000112420934F0380914F0390E0849664E2AD
:1016D00070E00E94BB1280934F032091630320931C
:1016E000500360916603662381F0062E000C770B91
:1016F000832F032E000C990B0E94BB12809167036D
:10170000869F200D11242093500360916A03662365
:10171000A1F0832F330F990B70E00E94BB12CB0115
:1017200062E070E00E94BB1220916B039091500325
:10173000289F900D1124909350034F33C1F1809155
:1017400050038A300CF089E087FD80E080935003DD
:10175000F894E0914F03F0E0E251FD4FE491E09303
:101760001F01209175033091500332039001112421
:10177000409173034203C001439F900D11242091B7
:10178000520302C0880F991F2A95E2F797FF02C003
:1017900081589F4F880F892F881F990B80932601AE
:1017A000809327017894CDCD0E940B0265CF1092D3
:1017B0005003CECF1982D0CD0E940B0210924E035F
:1017C00051E050937E03ECE6F1E0E491EF5FE093AB
:1017D0007A03EDE6F1E0E491EF5FE0937B038EE6C0
:1017E00091E0909395038093940310924503109297
:1017F000440310927C0388EA89830E94E9078823C6
:10180000E1F36EE571E086E793E00E948A02609161
:1018100042037091430390E080E04AE00E94560743
:1018200069E471E086E793E00E948A02698162952B
:101830006F7070E090E080E04AE00E9456076EE32F
:1018400071E086E793E00E948A0280913D03813037
:1018500009F430CE9981915099839111CECF70E0E7
:1018600060E085E00E940F0483B7817F846083BFBE
:1018700083B7816083BF83B7816083BF889583B757
:101880008E7F83BF83B78E7F83BFB7CF809199034D
:1018900090919A03A0919B03B0919C038F7099271C
:1018A000AA27BB270897A105B10520F487E00E946D
:1018B0003E0700CE88E7FBCF992309F4FBCD8FE2EA
:1018C000F6CF893209F0E6CC0E94B007E3CC1F9234
:1018D0000F920FB60F9211242F933F938F939F93E4
:1018E000AF93BF938091210190912201A091230198
:1018F000B09124013091190123E0230F2D3758F5C1
:101900000196A11DB11D209319018093210190938F
:101910002201A0932301B093240180911A01909198
:101920001B01A0911C01B0911D010196A11DB11DCB
:1019300080931A0190931B01A0931C01B0931D0189
:10194000BF91AF919F918F913F912F910F900FBEBB
:101950000F901F90189526E8230F0296A11DB11D28
:10196000D2CF1F920F920FB60F9211242F936F9325
:101970007F938F939F9360912601662349F1809115
:1019800018018F5F8093180190911F01891700F152
:101990002091250181E0282720932501109218012C
:1019A00080912001882369F08091000193E4899F50
:1019B000802D1124895B809300010E94AF129093C7
:1019C000270180912701211101C080E08093B4009C
:1019D0009F918F917F916F912F910F900FBE0F90DC
:1019E0001F901895789484B5826084BD84B5816019
:1019F00084BD85B5826085BD85B5816085BD8091DA
:101A00006E00816080936E00109281008091810051
:101A10008260809381008091810081608093810049
:101A2000809180008160809380008091B10084600B
:101A30008093B1008091B00081608093B00080916C
:101A40007A00846080937A0080917A00826080932B
:101A50007A0080917A00816080937A0080917A0088
:101A6000806880937A001092C10082E38093A7037C
:101A700081E090E0A0E0B0E08093A3039093A40302
:101A8000A093A503B093A6038FEF80939803E0E89B
:101A9000F7E7259134912130304C09F06AC2E6E92C
:101AA000F7E7E491E0938103E7E9F7E7E491E09356
:101AB0002C03E8E9F7E7E491E0932D03E9E9F7E780
:101AC0008591949190932F0380932E03EBE9F7E790
:101AD00085919491909331038093300387E08093B4
:101AE0005303EEE9F7E7E491E0935203EFE9F7E7F8
:101AF000E491E0939803E0EAF7E78591949190935D
:101B0000450380934403E2EAF7E78591949190932B
:101B1000470380934603E4EAF7E785919491909315
:101B2000490380934803E6EAF7E7859194919093FF
:101B30004B0380934A03C1E0C09328036FEF70E02A
:101B400085E00E940F0488E08093320389E080934F
:101B5000330387E08093340386E080933503D4E039
:101B6000D093360382E08093370381E1809338037A
:101B70000E94C8038CE39FE0909343038093420349
:101B8000D0934103C0934C038BE0809384038DE09A
:101B90008093830380E1809385038EE080938703A5
:101BA0008FE080938603C0937E03C09396031092C8
:101BB0009703C0937D03ECE6F1E0E491EF5FE093DF
:101BC0007A03EDE6F1E0E491EF5FE0937B038EE6CC
:101BD00091E09093950380939403CFB7F89480910C
:101BE0001E01811127C0EDE8F3E08491E1EAF3E002
:101BF0009491E82FF0E0EE0FFF1FEC58FF4FA591F6
:101C0000B491EC91E92321F461E08AE00E9404039D
:101C100061E08AE00E948C038CB580618CBD8CB53C
:101C200080648CBD61E08DE00E948C0361E08BE0FC
:101C30000E948C0380911E018F5F80931E01CFBF95
:101C40008CB58F7D8CBD8CB58C7F81608CBD8DB546
:101C500081608DBD8CB58C608CBD61E0809184030A
:101C60000E948C0361E0809183030E948C0361E0F9
:101C7000809185030E948C038091870318161CF4C1
:101C800061E00E948C038091860318161CF461E0C9
:101C90000E948C0380918703181674F460E00E9400
:101CA00004036AE070E080E090E00E94DA0461E002
:101CB000809187030E94040380918303082E000C07
:101CC000990BFC01ED57FC4FE491F0E0EE0FFF1F84
:101CD000E258FF4F2591349130938B0320938A0370
:101CE000FC01E956FC4FE491E09391038091840359
:101CF000082E000C990BFC01ED57FC4FE491F0E02D
:101D0000EE0FFF1FE258FF4F259134913093890366
:101D100020938803FC01E956FC4FE491E093900383
:101D200080918603082E000C990BFC01ED57FC4FA7
:101D3000E491F0E0EE0FFF1FE258FF4F2591349140
:101D400030938D0320938C03FC01E956FC4FE49102
:101D5000E093920380918503082E000C990BFC01FF
:101D6000ED57FC4FE491F0E0EE0FFF1FE258FF4FFC
:101D70002591349130938F0320938E03FC01E95613
:101D8000FC4FE491E093930381E20E94320384E1EB
:101D90000E9432038091810387FF03C08FE7809305
:101DA00081038091810380680E94320380E20E9457
:101DB00032038CE00E9432030E94510381E0809341
:101DC000510384E08093750380E790E090935D0376
:101DD00080935C0380E00E945E0261E070E083E03B
:101DE0000E940F048091B100887F81608093B100D0
:101DF000F894109280001092810010928500109249
:101E0000840088E191E0909389008093880080911C
:101E1000810088608093810080918100816080933F
:101E2000810080916F00826080936F007894809130
:101E3000440390914503892B11F00E947E04809108
:101E40003E03813009F4C2C080914103882309F424
:101E5000BDC00E940B0288E890E090935B038093E2
:101E60005A031092600310925F0381E080934E0347
:101E700089E08093630310926603109268031092C6
:101E80006A0380919803882309F4B8C181E08093A4
:101E90007E0310927D0310927C0310924003809386
:101EA000960380939703C1E0D1E092E1892E93E0FD
:101EB000992E1CE009E00E94E9078823E1F3E2E2A1
:101EC000F1E08491E2EBF0E0A490E3EBF0E0C49069
:101ED0000A2C000CBB081A141B040CF0CDC01C14F7
:101EE0000CF0CAC070919603EC2DE1330CF0E0E3E6
:101EF0009A2DF5E5AF16B1040CF094E5F09082034D
:101F000087E0A80EB11C83E0B594A7948A95E1F709
:101F100060E028E231E081E044EB50E0CE2EEE0FAD
:101F2000DD086C151D040CF0A7C0FA01E4907130B7
:101F300009F04FC0D9016894772477F8672C6E2098
:101F400019F06C90682A6C92769429F43196E4909A
:101F50006894772477F811966A2E621A691670F3DE
:101F6000880F19F42C5A3F4F81E06F5F4A0D5B1DBB
:101F7000D8CF9CE39093810310922C0380932D0380
:101F800080E293E090932F0380932E0384ED93E0FF
:101F9000909331038093300387E0809353038093C1
:101FA00052038CEA9DE090934503809344038EEDA9
:101FB0009DE0909347038093460384E79EE09093CF
:101FC0004903809348038CE39FE0B1CD1092520304
:101FD00058CF711119C0682E6094D9016894772484
:101FE00077F85E2C572019F05C9056205C9276941E
:101FF00029F43196E4906894772477F811965A2E54
:10200000521A591670F3ACCFD9016894772477F837
:102010007330F9F4482E40946894662467F8512C84
:10202000762C7E2039F07C90352C3F2430FE0FC07A
:10203000782A7C92669429F43196E4906894662418
:1020400067F853941196591658F3FC2689CF7420DB
:10205000F0CF672C6E2019F06C9068266C92769405
:1020600029F43196E4906894772477F811966A2ED3
:10207000621A691670F374CF10927F031093800375
:1020800062E271E086E793E00E948A0280917A031F
:10209000982F990F990F891B8D5A80937F038091F8
:1020A0007B03982F990F990F891B835D8093800381
:1020B000809199036EEA70E084FD02C06AEA70E0E4
:1020C00086E793E00E949C0780917A03982F990FEE
:1020D000990F891B8D5A80937F03809180038F5FB6
:1020E000809380038091520366EA70E0811102C000
:1020F00062EA70E086E793E00E949C0780917A0391
:10210000982F990F990F891B8D5A80937F03809187
:1021100080038F5F809380036EE970E086E793E031
:102120000E949C0780913E03813031F580915203DB
:102130008F5F6091530387FD09C0082E000C990B37
:1021400070E06F5F7F4F0E94BB12682F6093520355
:102150000E940B0290925B0380925A0310926003DC
:1021600010925F03D0934E030093630310926603B3
:102170001092680310926A0380913D038130E9F068
:1021800080919803482F50E070E060E0C090990380
:10219000D0909A03E0909B03F0909C03C416D50660
:1021A000E606F70610F08F3F41F480913F0381303F
:1021B00009F081CE0E94B0077CCE8FEF8093980308
:1021C0000E940B0210924E030E940B0286E990E0DF
:1021D00090935B0380935A031092600310925F0305
:1021E00081E080934E0399E090936303109266031D
:1021F0001092680310926A0380934003C0E0D0E01D
:102200000E94E907882331F060E371E086E793E0FC
:102210000E949C072097A1F30E940000F1CF10922A
:1022200079031092780385E091E09093770380938F
:1022300076030895052E97FB1EF400940E94311139
:1022400057FD07D00E94441107FC03D04EF40C94B4
:10225000311150954095309521953F4F4F4F5F4F2D
:10226000089590958095709561957F4F8F4F9F4F02
:1022700008950E946611A59F900DB49F900DA49F94
:10228000800D911D11240895A1E21A2EAA1BBB1BDB
:10229000FD010DC0AA1FBB1FEE1FFF1FA217B30732
:1022A000E407F50720F0A21BB30BE40BF50B661F48
:1022B000771F881F991F1A9469F76095709580950C
:1022C00090959B01AC01BD01CF010895A29FB00183
:1022D000B39FC001A39F700D811D1124911DB29F5A
:1022E000700D811D1124911D08950E94E91188F03F
:1022F0009F5798F0B92F9927B751B0F0E1F0660FCA
:10230000771F881F991F1AF0BA95C9F714C0B1300A
:1023100091F00E940312B1E008950C940312672F0C
:10232000782F8827B85F39F0B93FCCF38695779539
:102330006795B395D9F73EF4909580957095619522
:102340007F4F8F4F9F4F0895E89409C097FB3EF44D
:1023500090958095709561957F4F8F4F9F4F9923F2
:10236000A9F0F92F96E9BB279395F6958795779570
:102370006795B795F111F8CFFAF4BB0F11F460FF30
:102380001BC06F5F7F4F8F4F9F4F16C0882311F088
:1023900096E911C0772321F09EE8872F762F05C09C
:1023A000662371F096E8862F70E060E02AF09A9537
:1023B000660F771F881FDAF7880F9695879597F92C
:1023C000089557FD9058440F551F59F05F3F71F025
:1023D0004795880F97FB991F61F09F3F79F087958C
:1023E0000895121613061406551FF2CF4695F1DF15
:1023F00008C0161617061806991FF1CF86957105A5
:10240000610508940895E894BB2766277727CB01D8
:1024100097F908950E941D120C948E120E9480124A
:1024200038F00E94871220F0952311F00C94771257
:102430000C947D1211240C9404120E94E11170F38B
:10244000959FC1F3950F50E0551F629FF001729F59
:10245000BB27F00DB11D639FAA27F00DB11DAA1F68
:10246000649F6627B00DA11D661F829F2227B00DB5
:10247000A11D621F739FB00DA11D621F839FA00D40
:10248000611D221F749F3327A00D611D231F849F90
:10249000600D211D822F762F6A2F11249F575040E7
:1024A0009AF0F1F088234AF0EE0FFF1FBB1F661F62
:1024B000771F881F91505040A9F79E3F510580F02B
:1024C0000C9477120C9404125F3FE4F3983ED4F31B
:1024D000869577956795B795F795E7959F5FC1F7CF
:1024E000FE2B880F911D9695879597F9089597F97A
:1024F0009F6780E870E060E008959FEF80EC0895AA
:1025000000240A94161617061806090608950024D2
:102510000A9412161306140605060895092E03944C
:10252000000C11F4882352F0BB0F40F4BF2B11F4C0
:1025300060FF04C06F5F7F4F8F4F9F4F0895DB0197
:102540008F939F930E943911BF91AF91A29F800DED
:10255000911DA39F900DB29F900D11240895991B7A
:1025600079E004C0991F961708F0961B881F7A958A
:10257000C9F78095089597FB072E16F4009407D0AD
:1025800077FD09D00E94CF1207FC05D03EF490954C
:1025900081959F4F0895709561957F4F0895AA1B6F
:1025A000BB1B51E107C0AA1FBB1FA617B70710F03E
:1025B000A61BB70B881F991F5A95A9F78095909570
:1025C000BC01CD010895EE0FFF1F0590F491E02DA1
:0625D0000994F894FFCF0E
:1025D60001000000006906AE02440743070D0A0029
:0825E6004C4F41444552000036
:107E0000112484B714BE81FFF0D085E080938100F7
:107E100082E08093C00088E18093C10086E0809377
:107E2000C20080E18093C4008EE0C9D0259A86E02C
:107E300020E33CEF91E0309385002093840096BBD3
:107E4000B09BFECF1D9AA8958150A9F7CC24DD24C4
:107E500088248394B5E0AB2EA1E19A2EF3E0BF2EE7
:107E6000A2D0813461F49FD0082FAFD0023811F036
:107E7000013811F484E001C083E08DD089C08234E0
:107E800011F484E103C0853419F485E0A6D080C0E4
:107E9000853579F488D0E82EFF2485D0082F10E0AE
:107EA000102F00270E291F29000F111F8ED06801E7
:107EB0006FC0863521F484E090D080E0DECF843638
:107EC00009F040C070D06FD0082F6DD080E0C81688
:107ED00080E7D80618F4F601B7BEE895C0E0D1E017
:107EE00062D089930C17E1F7F0E0CF16F0E7DF06D8
:107EF00018F0F601B7BEE89568D007B600FCFDCFD4
:107F0000A601A0E0B1E02C9130E011968C91119780
:107F100090E0982F8827822B932B1296FA010C0160
:107F200087BEE89511244E5F5F4FF1E0A038BF0790
:107F300051F7F601A7BEE89507B600FCFDCF97BE46
:107F4000E89526C08437B1F42ED02DD0F82E2BD052
:107F50003CD0F601EF2C8F010F5F1F4F84911BD097
:107F6000EA94F801C1F70894C11CD11CFA94CF0C13
:107F7000D11C0EC0853739F428D08EE10CD085E9AC
:107F80000AD08FE07ACF813511F488E018D01DD067
:107F900080E101D065CF982F8091C00085FFFCCF94
:107FA0009093C60008958091C00087FFFCCF809118
:107FB000C00084FD01C0A8958091C6000895E0E648
:107FC000F0E098E1908380830895EDDF803219F02E
:107FD00088E0F5DFFFCF84E1DECF1F93182FE3DFCA
:107FE0001150E9F7F2DF1F91089580E0E8DFEE27F6
:047FF000FF270994CA
:027FFE00040479
:0400000300007E007B
:00000001FF
